:1000000027C1000056C1000054C1000052C10000C9
:1000100050C100004EC100004CC100004AC10000A8
:1000200048C1000046C1000044C1000042C10000B8
:1000300040C100003EC100003CC100003AC10000C8
:1000400038C1000036C1000034C1000032C10000D8
:1000500030C100002EC100002CC100000C94E90E3C
:1000600028C100000C941A120C94F01122C1000057
:1000700020C100001EC100001CC100001AC1000008
:1000800018C1000016C1000014C1000012C1000018
:100090000C94C6110C949C110CC10000DCC1000032
:1000A00008C1000006C1000004C1000002C1000038
:1000B00000C10000FEC00000FCC00000FAC000004B
:1000C000F8C00000F6C00000F4C000000C947211EB
:1000D0000C944811EEC000000C941E110C94F41006
:1000E000E8C00000CF01D201D501D801DB01DE015B
:1000F000E101E401E701F901FC01FF01020205024F
:1001000008020B020E021102B508B808A708AB08D6
:10011000AF08EF08BC08C008C608CA08CE08D40853
:10012000D808DC08EF08E208E608EA080000210029
:10013000240027002A002D003000330001010000B8
:10014000040107010A010000200023002600290005
:100150002C002F00320000010000030106010901FC
:1001600000002200250028002B002E003100340062
:1001700002010000050108010B0105050505070541
:1001800008080808020202020A0A08080404040413
:10019000010101010101010103030303030303033F
:1001A000040707070C0C0C0C0C0C0C0C02020202CE
:1001B00006060606060606060B0B0B0B0B0B0B0BB7
:1001C0000102102020080810204010204080020169
:1001D000020108040201010204081020408080404E
:1001E000201008040201800402018040201008044D
:1001F00002010804020101020408102040800102EB
:1002000004081020408000000A0B02090C0D0E08A3
:1002100007030401000000000000000000000000CF
:1002200000000000000000000000000000000000CE
:10023000000012111000000000000000000000008B
:10024000000000000000000000000000A71289125A
:1002500011241FBECFEFD1E2DEBFCDBF00E00CBF47
:100260001CE0A0E0B2E0E0E7F0E300E00BBF02C07A
:1002700007900D92A03AB107D9F722E1A0EABCE0BD
:1002800001C01D92A432B207E1F711E0C7E2D1E04C
:1002900000E006C021970109802FFE010E944E1444
:1002A000C632D10780E00807A9F70E948A130C9490
:1002B0002718A6CE85ED8093BC008091BC0084FDFC
:1002C000FCCF1092FA0C08954091D40C262F30E008
:1002D000240F311D21323105DCF42091FA0C243039
:1002E000C9F4FC0180E090E0861758F43091D40CFA
:1002F0002191DC01AE54B34FA30FB11D2C93019695
:10030000F3CF8091D40C680F6093D40C80E00895F3
:1003100081E0089582E0089508958FEF9FEF08959A
:100320008FEF9FEF08958091B10C90E091958195AA
:1003300091090895CF93DF931F921F92CDB7DEB737
:10034000CB01642F49835A83BFDF4981842F5A81AF
:10035000952F0F900F90DF91CF910895CF93DF935A
:100360001F92CDB7DEB7698361E0CE010196ACDFA5
:1003700081E090E00F90DF91CF910895982F462F64
:10038000660F550B660B770BFA01F197E930F10513
:1003900000F58827EE58FF4F8F4F0C944E1421E044
:1003A00030E017C022E030E014C023E030E011C09C
:1003B00024E030E00EC025E030E00BC026E030E065
:1003C00008C027E030E005C028E030E002C029E0A6
:1003D00030E0892F990F990BAA0BBB0BFC01F19709
:1003E000E930F10500F58827E558FF4F8F4F0C9451
:1003F0004E14265F3F4F17C02C5E3F4F14C0225E45
:100400003F4F11C0285D3F4F0EC02E5C3F4F0BC0C9
:10041000245C3F4F08C02A5B3F4F05C0205B3F4F25
:1004200002C0265A3F4FC901089586E392E00E9418
:100430005810E6EAFCE080E281939CE0E03BF9079B
:10044000D9F708958EBD00000DB407FEFDCF8EB51F
:1004500008958FEFF7CF1F920F920FB60F921124CE
:100460000BB60F922F933F934F935F936F937F93AE
:100470008F939F93AF93BF93EF93FF938091B900B6
:10048000887F803609F49CC068F5883209F45BC027
:1004900090F4803109F454C038F4882309F4F6C08C
:1004A000883009F44DC0F5C0883109F44CC0803261
:1004B00009F45DC0EEC0803409F468C048F48033AC
:1004C00009F455C0883309F0E4C08093F90CD8C012
:1004D000803509F44FC0883509F45DC0883409F0CF
:1004E000D8C0D6C0883909F4C7C0A8F4883709F441
:1004F00067C038F4883609F463C0803709F460C0F7
:10050000C8C0883809F4B8C0803909F45FC08038A1
:1005100009F0BFC05BC0803B09F486C038F4803A64
:1005200009F466C0883A09F47FC0B3C0803C09F47E
:10053000A7C0883C09F4A4C0883B09F48AC0A9C0BC
:1005400080911F0D10C090911E0D80911D0D981768
:1005500070F5E0911E0D81E08E0F80931E0DF0E08E
:10056000E350F34F80818093BB0085EC86C080937D
:10057000F90C8EC0E0911E0D81E08E0F80931E0D50
:100580008091BB00F0E0E350F34F808390911E0D0B
:1005900080911D0D6EC0E0911E0D81E08E0F809345
:1005A0001E0D8091BB00F0E0E350F34F80838091FB
:1005B000FC0C81116DC081E08093FB0C84EA61C06A
:1005C00083E08093FA0C1092F80CCFCF8091F80C56
:1005D000803208F051C0E091F80C81E08E0F8093DA
:1005E000F80C8091BB00F0E0E852F34F8083BDCF60
:1005F00085EC8093BC001092FA0C8091F80C80324C
:1006000030F4E091F80CF0E0E852F34F1082609182
:10061000F80C70E0E091D60CF091D70C88ED9CE0DE
:1006200019951092F80C35C084E08093FA0C109262
:10063000D50C1092D40CE091D20CF091D30C1995FA
:100640008091D40C811105C081E08093D40C10926C
:10065000B20CE091D50C81E08E0F8093D50CF0E0C8
:10066000EE54F34F80818093BB009091D50C809124
:10067000D40C981708F479CF85E88093BC0009C0A2
:1006800085EC8093BC001092FA0C03C01092F90C18
:1006900011DEFF91EF91BF91AF919F918F917F916B
:1006A0006F915F914F913F912F910F900BBE0F90E3
:1006B0000FBE0F901F9018952F923F924F925F920E
:1006C0006F927F928F929F92AF92BF92CF92DF9262
:1006D000EF92FF920F931F93CF93DF9388E091E106
:1006E00017D41816190624F487E892E00E945810CF
:1006F0008BE690E10DD418161906C4F08EEC9FE03D
:1007000007D481E39FE0DF91CF911F910F91FF907C
:10071000EF90DF90CF90BF90AF909F908F907F90A1
:100720006F905F904F903F902F90F2C388ED92E0D2
:100730000E945810C0E0D0E073E2E72EF12CEAE707
:10074000DE2EF9E7CF2EA8E73A2EB7E72B2E20971B
:1007500009F03EC089E293E00E9458108BE690E1D8
:10076000B5D39093A50C8093A40C9C012556310918
:100770002430310520F48CE78093A60C26C09C0120
:100780002057310922303105B0F32651310922308A
:10079000310588F38838910519F48AE793E005C09C
:1007A0008938910529F48BEC93E00E9458100DC014
:1007B0009C012D5F310922303105E8F2892B29F4A3
:1007C0008CE194E00E94581077DF80E090E076C1E1
:1007D000CA30D10509F475C18DE694E00E94581025
:1007E0008BE690E173D39093A50C8093A40C8F3F7C
:1007F000910561F48BE690E169D38BE690E166D3D5
:100800008BE690E163D3C9E0D0E057C18032910517
:1008100009F453C18332910511F483E204C08A3292
:10082000910531F48AE2FE01EA55F34F808345C118
:100830008033910511F480E3F6CF8133910511F4F3
:1008400081E3F1CF8233910511F482E3ECCF83335E
:10085000910511F483E3E7CF8433910511F484E328
:10086000E2CF8533910511F485E3DDCF8633910521
:1008700011F486E3D8CF8733910511F487E3D3CF02
:100880008833910511F488E3CECF8933910511F4B3
:1008900089E3C9CF8134910511F481E4C4CF823456
:1008A000910511F482E4BFCF8334910511F483E400
:1008B000BACF8434910511F484E4B5CF8534910521
:1008C00011F485E4B0CF8634910511F486E4ABCF02
:1008D0008734910511F487E4A6CF8834910511F48B
:1008E00088E4A1CF8934910511F489E49CCF8A343E
:1008F000910511F48AE497CF8B34910511F48BE4C0
:1009000092CF8C34910511F48CE48DCF8D34910508
:1009100011F48DE488CF8E34910511F48EE483CFE9
:100920008F34910511F48FE47ECF8035910511F459
:1009300080E579CF8135910511F481E574CF823559
:10094000910511F482E56FCF8335910511F483E5AC
:100950006ACF8435910511F484E565CF853591051D
:1009600011F485E560CF8635910511F486E55BCFFE
:100970008735910511F487E556CF8835910511F437
:1009800088E551CF8935910511F489E54CCF8A3539
:10099000910511F48AE547CF8136910511F481E67E
:1009A00042CF8236910511F482E63DCF8336910520
:1009B00011F483E638CF8436910511F484E633CF01
:1009C0008536910511F485E62ECF8636910511F412
:1009D00086E629CF8736910511F487E624CF88363D
:1009E000910511F488E61FCF8936910511F489E647
:1009F0001ACF8A36910511F48AE615CF8B36910508
:100A000011F48BE610CF8C36910511F48CE60BCFE8
:100A10008D36910511F48DE606CF8E36910511F4D1
:100A20008EE601CF8F36910511F48FE6FCCE80372C
:100A3000910511F480E7F7CE8137910531F48CE709
:100A40008093A60CC0E0D0E038C08237910511F445
:100A500082E7E9CE8337910511F483E7E4CE84374A
:100A6000910511F484E7DFCE8537910511F485E710
:100A7000DACE8637910511F486E7D5CE8737910512
:100A800029F4FE01EA55F34F208217C088379105FB
:100A900029F4FE01EA55F34F30820FC089379105E2
:100AA00029F4FE01EA55F34FC08207C08A37910549
:100AB00021F4FE01EA55F34FD082CE010E94E010EE
:100AC000FFC18EEB94E00E9458106091A60C88E064
:100AD00091E10E943C106FE075E088E091E10E9496
:100AE00043106091A70C88E091E10E943C10609156
:100AF000A80C88E091E10E943C106091A90C88E06C
:100B000091E10E943C106091AA0C88E091E10E9462
:100B10003C106091AB0C88E091E10E943C10609128
:100B2000AC0C88E091E10E943C106091AD0C88E033
:100B300091E10E943C106091AE0C88E091E10E942E
:100B40003C106091AF0C88E091E10E943C106091F4
:100B5000B00C88E091E10E943C108091A60C8C378B
:100B600009F0ADC18091A70C8A3239F0813309F4C4
:100B70008DC1833209F0A3C152C18091A80C843485
:100B800009F44BC144F4813409F048C182E195E095
:100B90000E94581006C0823551F0853509F43EC0D8
:100BA0003DC18BE690E1B4D197FDFBCF35C183E623
:100BB00095E00E94581064EB75E08BE690E10E948E
:100BC00043100E9437100E9437100E9437106FEBBD
:100BD00075E08BE690E10E94431042E250E060E055
:100BE00070E08BE690E10E9469106CEC75E08BE69A
:100BF00090E10E94431042E250E060E070E08BE63A
:100C000090E10E9469100E9437100E9437100E94E4
:100C1000371081ED95E00E945810FFC082E296E007
:100C20000E9458108091A20C9091A30C9927FC016E
:100C3000E054FE4F2491FC01E658FE4F8491882336
:100C400099F090E0880F991FFC01E45DFE4FA5919B
:100C5000B491FC01E05AFE4F859194918FB7F894BE
:100C6000EC912E2B2C938FBF8091A00C9091A10C16
:100C70009927FC01E054FE4F2491FC01E658FE4FF9
:100C800084918823D1F090E0880F991FFC01E45DE6
:100C9000FE4FA591B491FC01E05AFE4F85919491CD
:100CA0004FB7F8943C91E22FE095232F2E232C93FD
:100CB000DC012C91E223EC934FBF60E08091A20C09
:100CC00025D28BE690E124D1892B09F0A0C0709049
:100CD000A20C61E0872D1AD2C7010197F1F760E0FD
:100CE000872D14D28091A00C9091A10C9927FC0122
:100CF000E054FE4F6491FC01E658FE4FE491F0E0B1
:100D0000EE0FFF1FEA5BFE4F8591949100E412E421
:100D10002FE030E0462F0E944412611571058105D5
:100D2000910591F0DC01CB010196A11DB11D2C01B3
:100D30003D012FE0722281E3481685E758066104E1
:100D4000710408F0BECF03C0412C512C320182E760
:100D500096E00E945810C301B20196958795779549
:100D600067950E94141720E034E244E759E40E949A
:100D7000561420E034E046EA58E40E9451170E94DD
:100D8000BE142B01770F66087708B301A20188E033
:100D900091E10E94691062E876E08BE690E10E94A2
:100DA0004310B301A2018BE690E10E9469100E94FA
:100DB00037100E9437100E943710E6D74B015C01B4
:100DC00034E6432E512C612C712CDED7DC01CB0193
:100DD00088199909AA09BB09883E9340A105B10564
:100DE00080F0A1E04A1A510861087108B8EE8B0E34
:100DF000B3E09B1EA11CB11C411451046104710499
:100E000021F74114510461047104F9F65ACF0DDB46
:100E100083E996E00E9458104FDC4EDC4DDC809157
:100E2000A80C853509F04BC08091A90C833509F0D9
:100E300046C08091AA0C8534A9F0843509F03FC0E2
:100E40006091AE0C8091AF0C99DA9093A30C8093D3
:100E5000A20C83EE96E00E9458108091A20C909113
:100E6000A30C11C06091AE0C8091AF0C87DA909307
:100E7000A10C8093A00C84E397E00E94581080910D
:100E8000A00C9091A10C0E94E01019C085E897E099
:100E90000E94581086ED97E00E94581067E278E0B3
:100EA0008BE690E10E9443100E9437100E94371099
:100EB0000E94371081E398E00E945810FDDBB5DAFC
:100EC0002196CB30D1050CF442CC18CCFC01918D8D
:100ED000828D981761F0828DDF01A80FB11D5D969C
:100EE0008C91928D9F5F9F73928F90E008958FEF0A
:100EF0009FEF0895FC01918D828D981731F0828DBE
:100F0000E80FF11D858D90E008958FEF9FEF089514
:100F1000FC01918D228D892F90E0805C9F4F821B78
:100F200091098F739927089580E090E0892B21F033
:100F30000E94E30F811119C080E090E0892B21F01D
:100F40000E94D90F811114C080E090E0892B21F01C
:100F50000E94CF0F81110FC080E090E0892B81F0BB
:100F60000E94C50F81110AC008950E940000E4CFBD
:100F70000E940000E9CF0E940000EECF0C94000018
:100F800008952FB7F8946091290F70912A0F8091DE
:100F90002B0F90912C0F2FBF08950F931F93CF937A
:100FA000DF93EB01EEDF8B0154DA8F3F41F0E9DF95
:100FB000601B710B6C177D07B8F380E001C081E006
:100FC000DF91CF911F910F910895FC01A089B18904
:100FD0008C91A689B78982FD0FC09C91818D8F5F0E
:100FE0008F73228D821749F0218DDF01A20FB11D71
:100FF0005D969C93818F08958C910895FC01848D5A
:10100000DF01A80FB11DA35ABF4F2C91848D90E032
:1010100001968F739927848FA689B7892C93A0890D
:10102000B1898C9180648C93938D848D981306C0C4
:101030000288F389E02D80818F7D80830895EF926F
:10104000FF920F931F93CF93DF93EC0181E0888F82
:101050009B8D8C8D981305C0E889F989808185FD69
:1010600023C0F62E0B8D10E00F5F1F4F0F7311275B
:10107000E02E8C8DE8120BC00FB607FCFACFE88982
:10108000F989808185FFF5CFCE01B8DFF2CF8B8D56
:10109000FE01E80FF11DE35AFF4FF0820B8FEA8942
:1010A000FB898081806207C0EE89FF896083E889BF
:1010B000F98980818064808381E090E0DF91CF9125
:1010C0001F910F91FF90EF900895CF93DF93EC0164
:1010D000888D8823C1F0EA89FB89808185FD05C060
:1010E000A889B9898C9186FD0EC00FB607FCF5CF93
:1010F000808185FFF2CFA889B9898C9185FFEDCFDA
:10110000CE017CDFE8CFDF91CF910895362F90E0BC
:10111000FC01EA5FFD4F4491FC01E054FE4F249135
:10112000FC01E658FE4F9491992309F46BC04423C7
:1011300009F455C050E0FA013197E231F10508F0A9
:101140004EC08827EC57FF4F8F4F0C944E14809160
:1011500080008F7707C0809180008F7D03C08091D1
:101160008000877F809380003AC084B58F7702C06B
:1011700084B58F7D84BD33C08091B0008F7703C06C
:101180008091B0008F7D8093B00029C08091900045
:101190008F7707C0809190008F7D03C08091900071
:1011A000877F809390001BC08091A0008F7707C03D
:1011B0008091A0008F7D03C08091A000877F8093E5
:1011C000A0000DC0809120018F7707C08091200181
:1011D0008F7D03C080912001877F80932001E92FBC
:1011E000F0E0EE0FFF1FE05AFE4FA591B4918FB7CC
:1011F000F894EC91311103C020952E2301C02E2BC1
:101200002C938FBF089561E0FC0184817FDF809182
:10121000200D81111092200D0895CF93DF93EC01E2
:101220008E81882379F08F8198859C012F5F3F4FB5
:1012300038872F838230924010F40BD9F4CFCE013F
:10124000E2DF1E82DF91CF910895CF92DF92FF926D
:101250000F931F93CF93DF9300D01F92CDB7DEB7CC
:101260006C01F62E29833A834B835C83D6DF809111
:10127000200D29813A814B815C81811109C081E077
:101280008093200D9091A5118091A6119CBD8DBDDC
:1012900060E0F601848129833A834B835C8336DFE7
:1012A0006CE271E0C60179DE8F2D8064CBD808E155
:1012B00010E05C814B813A812981DA01C901002E5D
:1012C00004C0B695A795979587950A94D2F7298378
:1012D0003A834B835C83B6D80850110929813A813F
:1012E0004B815C81083FFFEF1F0739F7FF2029F092
:1012F00088E0F81204C087E803C085E901C08FEFD9
:10130000A1D810E0A6D8F601828787FF04C01F3F4E
:1013100011F01F5FF7CF0F900F900F900F90DF919C
:10132000CF911F910F91FF90DF90CF900895EF9292
:10133000FF920F931F93CF93DF93EC017901411537
:1013400051056105710511F482E134C08B8583304C
:1013500039F089E0440F551F661F771F8A95D1F732
:101360009A01AB0168E1CE0170DF882311F084E0BF
:1013700021C08EEF67D887018EEFF81AF8018191AE
:101380008F0160D80E151F05C9F78FEF5BD88FEF5F
:1013900059D85FD88A878F71853029F081E18D8394
:1013A000CE0131DF08C068E572E0CE01F6DD8111C3
:1013B00006C085E18D83CE0126DF80E010C020E0ED
:1013C00030E0A9016DE0CE0140DF811103C041D8BA
:1013D000882311F084E1EECFCE0115DF81E0DF91AB
:1013E000CF911F910F91FF90EF900895CF93DF93CE
:1013F0008091230D882389F1C091210DD091220D78
:10140000409100025091010260910202709103022A
:1014100028E23DE0CE018BDF811102C080E01EC0DA
:101420004091240D5091250D6091260D7091270D4E
:10143000411551056105710571F028E23DE0CE01CD
:1014400076DF882359F31092240D1092250D109207
:10145000260D1092270D1092230D81E0DF91CF9180
:101460000895BF92CF92DF92EF92FF920F931F9356
:10147000CF93DF936B017C01B42E80910002909199
:101480000102A0910202B09103028C159D05AE05E8
:10149000BF0509F46FC0AADF882309F472C0C091A8
:1014A000210DD091220D8E81882369F08881998148
:1014B000AA81BB81C816D906EA06FB0621F48F81F2
:1014C0009885892B91F1C882D982EA82FB828B852B
:1014D000A7019601833039F089E0220F331F441FA2
:1014E000551F8A95D1F761E1CE01AFDE882319F04F
:1014F00083E08D8333C045DD8B010E9429028A87FA
:101500008F3F41F43EDD601B710B6D327140A8F3DB
:101510008FE003C08E3F29F08DE08D83CE0173DE16
:101520001DC018861F8281E08E8308E21DE00E94A4
:101530002902F80181938F01FFE008321F07B9F7F4
:101540008F8198859E5F98878F832985222319F044
:101550008115924038F0CE0160DE04C0CE0153DE2A
:1015600080E00FC0C0920002D0920102E09202021D
:10157000F09203028091230D482F4B294093230DB5
:1015800081E0DF91CF911F910F91FF90EF90DF905D
:10159000CF90BF9008954F925F926F927F928F92FB
:1015A0009F92AF92BF92CF92DF92EF92FF920F93F2
:1015B0001F93CF93DF93EC016A017B01280139016E
:1015C000423051056105710510F480E072C08985D3
:1015D0009A85AB85BC850196A11DB11D8417950721
:1015E000A607B70790F38B889C88AD88BE888F8943
:1015F000803129F4BB27AF2D9E2D8D2D09C0DB0135
:10160000CA0147E0B695A795979587954A95D1F772
:10161000880E991EAA1EBB1E8091000290910102A5
:10162000A0910202B091030288169906AA06BB0691
:1016300079F48F89803199F4DD24EE24FF24C601EA
:10164000880F991FFC01E85DF24F5182408218C05B
:1016500040E0C501B40105DF8111EBCFB6CFE894BE
:10166000C7F8DD24EE24FF24C601880F991F880FD8
:10167000991FFC01E85DF24F4082518262827382C1
:101680008091230D81608093230D8A89823080F0C0
:101690008D819E81AF81B885880E991EAA1EBB1EC2
:1016A0008092240D9092250DA092260DB092270DC8
:1016B00081E0DF91CF911F910F91FF90EF90DF902C
:1016C000CF90BF90AF909F908F907F906F905F90E2
:1016D0004F9008958F929F92AF92BF92CF92DF92D8
:1016E000EF92FF920F931F93CF93DF93FC018185BD
:1016F0009285A385B4850196A11DB11D8417950718
:10170000A607B70710F480E05BC083899489A58998
:10171000B689C789C03129F4852E962EA72EBB2401
:1017200009C04A015B01C7E0B694A79497948794D7
:10173000CA95D1F7E9016A017B018F01BC01CD0196
:10174000680D791D8A1D9B1D8090000290900102FA
:10175000A0900202B0900302681579058A059B05E6
:1017600099F4F80187898031A1F4B701A6015527C2
:1017700066277727440F551FFA01E85DF24F8081F5
:101780009181A0E0B0E017C040E06BDE8111E9CFAD
:10179000BACFB701A6014F77552766277727440FA1
:1017A000551F440F551FFA01E85DF24F808191816A
:1017B000A281B381BF7088839983AA83BB8381E0B0
:1017C000DF91CF911F910F91FF90EF90DF90CF901D
:1017D000BF90AF909F908F9008953F924F925F92ED
:1017E0006F927F928F929F92AF92BF92CF92DF9231
:1017F000EF92FF920F931F93CF93DF93CDB7DEB796
:101800002C970FB6F894DEBF0FBECDBF5C01DC0194
:101810005B968D909C905C971696CD90DD90ED90A8
:10182000FC901997C114D104E104F10439F0BFEF21
:10183000CB1ADB0AEB0AFB0A312C07C0F401C0808B
:10184000D180E280F38033243394F4018185928542
:10185000A385B4859C01AD012F5F3F4F4F4F5F4F74
:1018600029873A874B875C87260137011D821E82B4
:101870001F821886F40181859285A385B4852D8108
:101880003E814F815885281739074A075B0708F0C2
:1018900060C089859A85AB85BC858C159D05AE0594
:1018A000BF0550F482E0C82ED12CE12CF12C92E03F
:1018B000492E512C612C712C9E012F5F3F4FB70197
:1018C000A601C40107DF882309F443C089819A81F6
:1018D000AB81BC81892B8A2B8B2B41F026013701F0
:1018E0009FEF491A590A690A790A05C0C414D50438
:1018F000E604F70491F02D813E814F8158852F5FDA
:101900003F4F4F4F5F4F2D833E834F8358873FEFAD
:10191000C31AD30AE30AF30AADCF0FEF1FEF2FEF7D
:101920003FE0B301A201C40136DE882391F0D50166
:1019300016964D915D916D917C91199741155105C8
:101940006105710541F093018201C40124DE81111A
:1019500002C080E02AC0D50116964D925D926D922C
:101960007C921997332051F0D301C2010196A11D39
:10197000B11DF40180839183A283B383F50187892C
:10198000908DA18DB28D892B8A2B8B2B69F4D5017B
:1019900057964D925D926D927C925A9714968C91C7
:1019A0001497806814968C9381E02C960FB6F89467
:1019B000DEBF0FBECDBFDF91CF911F910F91FF9082
:1019C000EF90DF90CF90BF90AF909F908F907F90DF
:1019D0006F905F904F903F9008954F925F926F92FB
:1019E0007F928F929F92AF92BF92EF92FF920F934E
:1019F0001F93CF93DF9300D01F921F92CDB7DEB716
:101A00008C016D83DC0115968C911597813009F05E
:101A100056C014968C9181FF52C059C0038CF48D2E
:101A2000E02D258530E0275F3F4F2A013B01B1E0E3
:101A30004B1A510861087108022E04C0769467940D
:101A4000579447940A94D2F7D501C4010197A1098C
:101A5000B10904C0B695A795979587952A95D2F7B1
:101A600084159505A605B70508F06FC0F8014789EC
:101A7000508D618D728D46835783608771872C01ED
:101A80003D017801E6E0EE0EF11CD801411451044D
:101A90006104710409F463C016964D915D916D91D6
:101AA0007C91199797015B968D919C915C9712DEC2
:101AB000B1E04B1A5108610871088111E6CF81E04D
:101AC00090E0F8019383828380E090E049C182FF37
:101AD0000EC0F80142855385648575858388948896
:101AE000A588B688481559056A057B05F1F4D80123
:101AF0001A964D915D916D917C911D975B968D919C
:101B00009C915C97FC0174807A944A015B0129E006
:101B1000B694A794979487942A95D1F778207A0160
:101B2000F1E0FF22772011F162C081149104A10439
:101B3000B10409F073CF1682178210861186F8015E
:101B40001286138614861586D2CF452B462B472B3B
:101B500009F48CCF84199509A609B70990CF1A9674
:101B60008D929D92AD92BC921D97C1CFE114F1046C
:101B700009F03DC0F80146815781608571854115A6
:101B800051056105710549F48789908DA18DB28D4C
:101B90000097A105B10531F520C09E012F5F3F4F91
:101BA00099DD882309F490CF89819A81AB81BC812A
:101BB000F801238D348DF9012789203129F048EF70
:101BC0005FEF6FEF7FE004C048EF5FEF60E070E031
:101BD00084179507A607B70728F0C801FEDD811115
:101BE00006C06DCFF80186839783A087B187D8019F
:101BF0005B96ED91FC915C9716968D909D90AD90C3
:101C0000BC901997B2E08B1A9108A108B10805841D
:101C100004C0880C991CAA1CBB1C0A94D2F78685A8
:101C20009785A089B189880E991EAA1EBB1E870CB4
:101C3000911CA11CB11CE114F10401F5F8014285CD
:101C400053856485758583899489A589B6894817E4
:101C500059076A077B0790F0C9DB882309F42FCF67
:101C60008092000290920102A0920202B0920302BE
:101C70008091230D81608093230D07C041E0C50151
:101C8000B401EFDB882309F41ACFF701E85DF24FC6
:101C90008D818083F80182859385A485B585019621
:101CA000A11DB11D82879387A487B5874389548975
:101CB00065897689481759076A077B0738F4838B4B
:101CC000948BA58BB68B848180688483D80114960D
:101CD0008C9183FD03C081E090E042C0F8019581C2
:101CE000992309F4ECCE87FF37C066857785808914
:101CF000918941E0B6DB882309F4E1CED801529600
:101D0000EC91B0E2EB9F90011124D901A85DB24F94
:101D1000109709F4D4CEF8018581823050F44389BC
:101D20005489658976895C964D935D936D937C9318
:101D30005F97F8018789908DA18DB28DF901E85DDB
:101D4000F24F938F828FB58BA48BD80114968C9110
:101D500014978F7714968C9349DB8111BCCFAFCE4B
:101D60000F900F900F900F900F90DF91CF911F91D8
:101D70000F91FF90EF90BF90AF909F908F907F90CA
:101D80006F905F904F9008953FB7F89480912D0F1A
:101D900090912E0FA0912F0FB091300F26B5A89BD8
:101DA00005C02F3F19F00196A11DB11D3FBFBA2FED
:101DB000A92F982F8827820F911DA11DB11DBC014D
:101DC000CD0142E0660F771F881F991F4A95D1F712
:101DD00008951F920F920FB60F9211242F933F93E5
:101DE0008F939F93AF93BF938091290F90912A0F68
:101DF000A0912B0FB0912C0F3091280F23E0230FCF
:101E00002D3720F40196A11DB11D05C026E8230F32
:101E10000296A11DB11D2093280F8093290F909346
:101E20002A0FA0932B0FB0932C0F80912D0F909120
:101E30002E0FA0912F0FB091300F0196A11DB11D53
:101E400080932D0F90932E0FA0932F0FB093300FF0
:101E5000BF91AF919F918F913F912F910F900FBEA6
:101E60000F901F901895CF92DF92EF92FF920F93F1
:101E70001F93CF93DF93EC016A017B01E889F98915
:101E800082E080834115514E61057105B1F060E03B
:101E900079E08DE390E0A70196010E940518890181
:101EA0009A01015011092109310936952795179595
:101EB0000795980101151041A8F0E889F989108269
:101EC00060E874E88EE190E0A70196010E94051891
:101ED000DA01C9010197A109B109B695A7959795AE
:101EE00087959C01EC85FD853083EE85FF852083F9
:101EF000188EEC89FD8986E08083EA89FB898081E0
:101F000080618083EA89FB89808188608083EA8997
:101F1000FB89808180688083EA89FB8980818F7D4D
:101F20008083DF91CF911F910F91FF90EF90DF9011
:101F3000CF900895CF92DF92EF92FF920F931F936D
:101F4000CF93DF936C017A018B01C0E0D0E0CE1516
:101F5000DF0589F0D8016D918D01D601ED91FC91DD
:101F60000190F081E02DC6011995892B11F47E01B5
:101F700002C02196ECCFC701DF91CF911F910F9145
:101F8000FF90EF90DF90CF90089581E39FE00E9453
:101F9000880721E0892B09F420E0822F08958EEC38
:101FA0009FE00E94880721E0892B09F420E0822F1E
:101FB00008958BE690E10E94880721E0892B09F4BF
:101FC00020E0822F089588E091E10E94880721E0B7
:101FD000892B09F420E0822F089512D7EF92FF9207
:101FE0000F931F93CF93DF93EC01198218821B820A
:101FF0001A821D821C826115710591F17B01FB0122
:1020000001900020E9F731978F01061B170BB801EB
:102010006F5F7F4F80E090E00FD6009759F0998373
:1020200088831B830A832C813D81232B79F4FC0157
:1020300010820CC088819981009709F065D51982BA
:1020400018821D821C821B821A820AC01D830C8387
:10205000B701DF91CF911F910F91FF90EF90DDC6F7
:10206000DF91CF911F910F91FF90EF9008956FEF47
:102070008BE690E10C941F08DC01ED91FC9101903E
:10208000F081E02D19946115710579F0FB01019043
:102090000020E9F73197AF01461B570BDC01ED91AA
:1020A000FC910280F381E02D199480E090E0089586
:1020B000CF93DF93BC0188E091E1E5DFEC016FE0B5
:1020C00075E088E091E1DFDF8C0F9D1FDF91CF91FC
:1020D00008954F925F926F927F928F929F92AF92EC
:1020E000BF92CF92DF92EF92FF920F931F93CF9305
:1020F000DF93CDB7DEB7A1970FB6F894DEBF0FBE62
:10210000CDBF8C016A017B0177FF27C06DE2B4DF90
:102110005C0122273327A9012C193D094E095F09CB
:1021200019A2CE0181967C019AE0492E512C612C96
:10213000712CCA01B901A301920167D7605DF70153
:1021400062937F01211531054105510591F7BF01CA
:10215000C80199DF8A0D9B1D1CC09A01AB0119A211
:10216000CE0181967C018AE0882E912CA12CB12C85
:10217000CA01B901A501940148D7605DF7016293D6
:102180007F01211531054105510591F7BF01C801B6
:102190007ADFA1960FB6F894DEBF0FBECDBFDF91F8
:1021A000CF911F910F91FF90EF90DF90CF90BF9054
:1021B000AF909F908F907F906F905F904F90089519
:1021C000CF93DF93AC01990F660B770B88E091E119
:1021D00080DFEC016FE075E088E091E154DF8C0F67
:1021E0009D1FDF91CF9108951F920F920FB60F920E
:1021F00011240BB60F922F933F934F935F936F93DE
:102200007F938F939F93AF93BF93EF93FF9381E35C
:102210009FE00E94FE07FF91EF91BF91AF919F91C8
:102220008F917F916F915F914F913F912F910F907F
:102230000BBE0F900FBE0F901F9018951F920F921C
:102240000FB60F9211240BB60F922F933F934F931B
:102250005F936F937F938F939F93AF93BF93EF930E
:10226000FF9381E39FE00E94E507FF91EF91BF910B
:10227000AF919F918F917F916F915F914F913F911E
:102280002F910F900BBE0F900FBE0F901F901895BF
:102290001F920F920FB60F9211240BB60F922F932D
:1022A0003F934F935F936F937F938F939F93AF93DE
:1022B000BF93EF93FF938EEC9FE00E94FE07FF9188
:1022C000EF91BF91AF919F918F917F916F915F91AE
:1022D0004F913F912F910F900BBE0F900FBE0F901B
:1022E0001F9018951F920F920FB60F9211240BB6E4
:1022F0000F922F933F934F935F936F937F938F939F
:102300009F93AF93BF93EF93FF938EEC9FE00E9458
:10231000E507FF91EF91BF91AF919F918F917F91D1
:102320006F915F914F913F912F910F900BBE0F9046
:102330000FBE0F901F9018951F920F920FB60F921D
:1023400011240BB60F922F933F934F935F936F938C
:102350007F938F939F93AF93BF93EF93FF938BE6FE
:1023600090E10E94FE07FF91EF91BF91AF919F9185
:102370008F917F916F915F914F913F912F910F902E
:102380000BBE0F900FBE0F901F9018951F920F92CB
:102390000FB60F9211240BB60F922F933F934F93CA
:1023A0005F936F937F938F939F93AF93BF93EF93BD
:1023B000FF938BE690E10E94E507FF91EF91BF91BB
:1023C000AF919F918F917F916F915F914F913F91CD
:1023D0002F910F900BBE0F900FBE0F901F9018956E
:1023E0001F920F920FB60F9211240BB60F922F93DC
:1023F0003F934F935F936F937F938F939F93AF938D
:10240000BF93EF93FF9388E091E10E94FE07FF9155
:10241000EF91BF91AF919F918F917F916F915F915C
:102420004F913F912F910F900BBE0F900FBE0F90C9
:102430001F9018951F920F920FB60F9211240BB692
:102440000F922F933F934F935F936F937F938F934D
:102450009F93AF93BF93EF93FF9388E091E10E9426
:10246000E507FF91EF91BF91AF919F918F917F9180
:102470006F915F914F913F912F910F900BBE0F90F5
:102480000FBE0F901F901895CF92DF92EF92FF92A0
:102490000F931F93E82FF92F05C00150110921094F
:1024A000310961F1908196239417B9F305C0015069
:1024B00011092109310911F1908196239413F7CF65
:1024C000C12CD12CE12CF12C0AC08FEFC81AD80AEC
:1024D000E80AF80A0C151D052E053F0579F08081E4
:1024E0008623841791F36C2D7D2D8E2D9F2D1F91AA
:1024F0000F91FF90EF90DF90CF90089560E070E033
:1025000080E090E01F910F91FF90EF90DF90CF90CF
:1025100008958091A7119091A811F6D28091AD11E4
:102520009091AE11F1D28091B3119091B411ECD28F
:102530008091B9119091BA11E7D28091BF11909119
:10254000C011E2D28091C5119091C611DDC2E1E3C4
:10255000FFE01382128288EE93E0A0E0B0E0848373
:102560009583A683B78322E132E03183208345E35C
:1025700051E05587448744E351E05787468740E35D
:1025800051E0518B408B41E351E0538B428B42E34E
:1025900051E0558B448B46E351E0578B468B118EAF
:1025A000128E138E148EEEECFFE01382128284835F
:1025B0009583A683B7833183208345ED50E055870B
:1025C000448744ED50E05787468740ED50E0518BFB
:1025D000408B41ED50E0538B428B42ED50E0558BE8
:1025E000448B46ED50E0578B468B118E128E138E26
:1025F000148EEBE6F0E11382128284839583A68326
:10260000B783318320834DEC50E0558744874CECF1
:1026100050E05787468748EC50E0518B408B49EC9F
:1026200050E0538B428B4AEC50E0558B448B4EEC80
:1026300050E0578B468B118E128E138E148EE8E06D
:10264000F1E11382128284839583A683B783318359
:10265000208325EC30E03587248724EC30E0378771
:10266000268720EC30E0318B208B21EC30E0338B5F
:10267000228B22EC30E0358B248B26EC30E0378B3C
:10268000268B118E128E138E148EE5EAF1E120E571
:1026900020831182EBECF1E11582168211861386FC
:1026A00042E050E060E070E04487558766877787B6
:1026B00013A215A614A622E232E033A722A717A67A
:1026C000E4E1F2E11382128284839583A683B783C7
:1026D0008AE292E09183808361E175E085EC91E18B
:1026E0007DDC61E175E08FEB91E178DC61E175E023
:1026F00089EB91E173DC61E175E083EB91E16EDCE4
:1027000061E175E08DEA91E169DC61E175E087EAFC
:1027100091E164CC789484B5826084BD84B5816095
:1027200084BD85B5826085BD85B5816085BD80919C
:102730006E00816080936E00109281008091810014
:10274000826080938100809181008160809381000C
:10275000809180008160809380008091B1008460CE
:102760008093B1008091B00081608093B00080912F
:1027700091008260809391008091910081608093AC
:102780009100809190008160809390008091A100E1
:1027900082608093A1008091A10081608093A1005C
:1027A0008091A00081608093A000809121018260CF
:1027B000809321018091210181608093210180918A
:1027C000200181608093200180917A008460809351
:1027D0007A0080917A00826080937A0080917A00FA
:1027E000816080937A0080917A00806880937A007B
:1027F0001092C10040E056E960E070E088E091E1AD
:1028000032DB40E052EC61E070E08BE690E12BDBE4
:1028100040E855E260E070E08EEC9FE024DB40E8A9
:1028200055E260E070E081E39FE01DDB82E898E024
:102830003FDC83ED98E03CDC84E299E039DC85E71D
:1028400099E036DC86EC99E033DC87E19AE030DC15
:1028500088E69AE02DDC89EB9AE02ADC83ED98E0AB
:1028600027DC83ED98E024DC82E898E021DC8AE034
:102870009BE01EDC8BE59BE01BDC82E898E018DC2B
:102880008CEA9BE015DC8DEF9BE012DC8EE49CE093
:102890000FDC0E945C030E949407FBCFEE0FFF1F2A
:1028A000881F8BBF0790F691E02D19940CD073C34D
:1028B0006BD340F062D330F021F45F3F19F054C382
:1028C00051119DC357C378D398F39923C9F3552366
:1028D000B1F3951B550BBB27AA2762177307840713
:1028E00038F09F5F5F4F220F331F441FAA1FA9F3C9
:1028F00033D00E2E3AF0E0E830D091505040E695BB
:10290000001CCAF729D0FE2F27D0660F771F881F1B
:10291000BB1F261737074807AB07B0E809F0BB0B0A
:10292000802DBF01FF2793585F4F2AF09E3F51052E
:1029300068F01AC364C35F3FECF3983EDCF38695FE
:1029400077956795B795F7959F5FC9F7880F911DA4
:102950009695879597F90895E1E0660F771F881F90
:10296000BB1F621773078407BA0720F0621B730B43
:10297000840BBA0BEE1F88F7E095089504D0689495
:10298000B1113DC3089520D388F09F5790F0B92F1F
:102990009927B751A0F0D1F0660F771F881F991FB4
:1029A0001AF0BA95C9F712C0B13081F027D3B1E05F
:1029B000089524C3672F782F8827B85F39F0B93F6F
:1029C000CCF3869577956795B395D9F73EF49095B6
:1029D0008095709561957F4F8F4F9F4F0895CF934E
:1029E000DF938230910510F482E090E0E0912212B2
:1029F000F091231220E030E0C0E0D0E0309711F1F8
:102A00004081518148175907C0F04817590761F4B0
:102A100082819381209719F09B838A832BC09093A6
:102A200023128093221226C02115310519F0421776
:102A3000530718F49A01BE01DF01EF010280F38110
:102A4000E02DDCCF2115310509F1281B390B24308D
:102A5000310590F412968D919C9113976115710533
:102A600021F0FB019383828304C09093231280930F
:102A70002212FD01329644C0FD01E20FF31F819343
:102A80009193225031092D933C933AC0209120120A
:102A900030912112232B41F420910602309107023C
:102AA00030932112209320122091040230910502CC
:102AB0002115310541F42DB73EB7409108025091E0
:102AC0000902241B350BE0912012F0912112E2172C
:102AD000F307A0F42E1B3F0B2817390778F0AC0141
:102AE0004E5F5F4F2417350748F04E0F5F1F50931E
:102AF0002112409320128193919302C0E0E0F0E014
:102B0000CF01DF91CF9108950F931F93CF93DF9360
:102B1000009709F48CC0FC01329713821282009155
:102B20002212109123120115110581F420813181A7
:102B3000820F931F209120123091211228173907FC
:102B400079F5F0932112E093201271C0D80140E092
:102B500050E0AE17BF0750F412962D913C91139799
:102B6000AD012115310509F1D901F3CF9D01DA013C
:102B70003383228360817181860F971F82179307A9
:102B800069F4EC0128813981260F371F2E5F3F4FF2
:102B9000318320838A819B8193838283452B29F40F
:102BA000F0932312E093221242C01396FC93EE930B
:102BB0001297ED01499159919E01240F351FE2179B
:102BC000F30771F480819181840F951F029611960D
:102BD0009C938E938281938113969C938E931297EC
:102BE000E0E0F0E0D80112968D919C911397009748
:102BF00019F0F8018C01F6CF8D919C9198012E5F10
:102C00003F4F820F931F20912012309121122817DD
:102C1000390769F4309729F4109223121092221286
:102C200002C0138212821093211200932012DF91AE
:102C3000CF911F910F9108956F927F928F929F92E3
:102C4000AF92BF92CF92DF92EF92FF920F931F93BA
:102C5000CF93DF93EC01009781F4CB01DF91CF910B
:102C60001F910F91FF90EF90DF90CF90BF90AF90AA
:102C70009F908F907F906F90B2CEFC01E60FF71F70
:102C80009C0122503109E217F30708F4A8C0D901CA
:102C90000D911C91119706171707A8F00530110523
:102CA00008F49BC0C80104978617970708F495C0DD
:102CB00002501109061B170B019311936D937C931E
:102CC000CF0122DF8AC05B01A01AB10A4C01800E3D
:102CD000911EA0912212B091231240E050E0E12C0D
:102CE000F12C109709F44AC0A815B905D1F56D90DB
:102CF0007C901197630182E0C80ED11CCA14DB04DA
:102D000080F1A3014A195B096A0182E0C80ED11C57
:102D10001296BC9012971396AC91B5E0CB16D104E5
:102D200040F0B282A38351834083D9016D937C9399
:102D30000AC00E5F1F4FC301800F911FF9019183DD
:102D40008083EB2DFA2FE114F10431F0D7011396B3
:102D5000FC93EE93129741C0F0932312E09322125A
:102D60003CC08D919C9111974817590708F4AC010C
:102D70007D0112960D90BC91A02DB3CF80912012B1
:102D80009091211288159905E1F446175707C8F468
:102D90008091040290910502009741F48DB79EB78F
:102DA0004091080250910902841B950BE817F9071E
:102DB000B0F4F0932112E0932012F9017183608343
:102DC0000CC0CB010CDE7C01009749F0A801BE01CC
:102DD0001BD0CE0199DEC70104C0CE0102C080E045
:102DE00090E0DF91CF911F910F91FF90EF90DF90D6
:102DF000CF90BF90AF909F908F907F906F900895ED
:102E000081E090E0F89423C1FB01DC0102C0019055
:102E10000D9241505040D8F70895FB01DC0101901C
:102E20000D920020E1F70895E89409C097FB3EF465
:102E300090958095709561957F4F8F4F9F4F992307
:102E4000A9F0F92F96E9BB279395F6958795779585
:102E50006795B795F111F8CFFAF4BB0F11F460FF45
:102E60001BC06F5F7F4F8F4F9F4F16C0882311F09D
:102E700096E911C0772321F09EE8872F762F05C0B1
:102E8000662371F096E8862F70E060E02AF09A954C
:102E9000660F771F881FDAF7880F9695879597F941
:102EA00008950BD078C069D028F06ED018F0952323
:102EB00009F05AC05FC01124A2C07ED0A0F3959F34
:102EC000D1F3950F50E0551F629FF001729FBB2711
:102ED000F00DB11D639FAA27F00DB11DAA1F649FBD
:102EE0006627B00DA11D661F829F2227B00DA11D70
:102EF000621F739FB00DA11D621F839FA00D611DF6
:102F0000221F749F3327A00D611D231F849F600D16
:102F1000211D822F762F6A2F11249F5750408AF04F
:102F2000E1F088234AF0EE0FFF1FBB1F661F771FDB
:102F3000881F91505040A9F79E3F510570F014C072
:102F40005EC05F3FECF3983EDCF38695779567951E
:102F5000B795F795E7959F5FC1F7FE2B880F911DF9
:102F60009695879597F9089597F99F6780E870E09F
:102F700060E008959FEF80EC089500240A941616EF
:102F8000170618060906089500240A941216130657
:102F9000140605060895092E0394000C11F48823E5
:102FA00052F0BB0F40F4BF2B11F460FF04C06F5F01
:102FB0007F4F8F4F9F4F089557FD9058440F551FD7
:102FC00059F05F3F71F04795880F97FB991F61F0AB
:102FD0009F3F79F087950895121613061406551F22
:102FE000F2CF4695F1DF08C0161617061806991F8E
:102FF000F1CF86957105610508940895E894BB2783
:1030000066277727CB0197F90895A1E21A2EAA1B0C
:10301000BB1BFD010DC0AA1FBB1FEE1FFF1FA21788
:10302000B307E407F50720F0A21BB30BE40BF50B85
:10303000661F771F881F991F1A9469F7609570950E
:10304000809590959B01AC01BD01CF01089511E0E1
:10305000C7E2D1E000E005C0802FFE011FDC219611
:10306000011DC832D10780E00807B1F7F894FFCFFF
:10307000FFFFFFFF0000241280000100000000009D
:1030800000001F089A0F880766077A076508000086
:103090000000ED0C9A0F00000000AE019A019301B0
:1030A00090018D018C017C7C203E20436C65617217
:1030B000205661726961626C65204E657874696F33
:1030C0006E20496E737472756374696F6E20284E3A
:1030D00049292E20202020202020202020202020B0
:1030E00020202020202020202020202020202020E0
:1030F000202020207C7C007C7C203E20496E636F59
:103100006D696E672044617461204F6E2055415295
:10311000542030202020202020202020202020206B
:10312000202020202020202020202020202020209F
:10313000202020202020202020202020202020208F
:1031400020202020207C7C007C7C203E20496E6357
:103150006F6D696E672044617461204F6E20554128
:1031600052542031202020202020202020202020E8
:10317000202020202020202020202020202020204F
:10318000202020202020202020202020202020203F
:103190002020202020207C7C007C7C203E2052654A
:1031A0006164696E6720496E636F6D696E67204464
:1031B000617461204F6E20554152542031202D20E2
:1031C00053746570203120202020202020202020D2
:1031D00020202020202020202020202020202020EF
:1031E000202020202020207C7C007C7C203E204E43
:1031F000657874696F6E2069732073746172746589
:1032000064202E2E2E202020202020202020202050
:1032100020202020202020202020202020202020AE
:10322000202020202020202020202020202020209E
:1032300020202020202020207C7C007C7C203E2020
:103240005344204361726420557064617465202E7C
:103250002E2E202020202020202020202020202052
:10326000202020202020202020202020202020205E
:10327000202020202020202020202020202020204E
:103280002020202020202020207C7C007C7C203ED0
:1032900020556E6B6E6F77204572726F7220212001
:1032A000202020202020202020202020202020201E
:1032B000202020202020202020202020202020200E
:1032C00020202020202020202020202020202020FE
:1032D000202020202020202020207C7C007C7C209E
:1032E0003E2052656164696E6720496E636F6D6947
:1032F0006E672044617461204F6E20554152542006
:1033000031202D2053746570203220202020202071
:1033100020202020202020202020202020202020AD
:1033200020202020202020202020207C7C007C7C4D
:10333000203E204578656375746520496E636F6D26
:10334000696E672044617461204F6E20554152546C
:103350002031202D20537465702033202020202020
:10336000202020202020202020202020202020205D
:103370002020202020202020202020207C7C000DC8
:103380000A007C7C203E204F70656E20417264757F
:10339000696E6F20416E616C6F67205265616420B9
:1033A000417070202020202020202020202020205C
:1033B000202020202020202020202020202020200D
:1033C00020202020202020202020202020202020FD
:1033D0007C7C007C7C203E2052656164792E20201C
:1033E00020202020202020202020202020202020DD
:1033F00020202020202020202020202020202020CD
:1034000020202020202020202020202020202020BC
:1034100020202020202020202020202020202020AC
:10342000207C7C0070616765204C6F676F6E005078
:10343000494E5F5641522E7478743D003132333418
:10344000007C7C203E2050616765204C6F676F6E6A
:10345000202020202020202020202020202020206C
:10346000202020202020202020202020202020205C
:10347000202020202020202020202020202020204C
:103480002020202020202020202020202020207CE0
:103490007C007C7C203E204F70656E20556C7472E1
:1034A00061536F6E69632052616E676566696E6411
:1034B00065722041707020202020202020202020B4
:1034C00020202020202020202020202020202020FC
:1034D0002020202020202020202020202020207C90
:1034E0007C007C7C203E2044697374616E6365209F
:1034F0003A004449535456414C5F4E554D2E766127
:103500006C3D007C7C203E20436C6F736520556CC5
:10351000747261536F6E69632052616E676566698C
:103520006E646572204170702020202020202020B1
:10353000202020202020202020202020202020208B
:10354000202020202020202020202020202020207B
:103550007C7C007C7C203E205661726961626C65D7
:10356000205553547269672E2020202020202020CF
:10357000202020202020202020202020202020204B
:10358000202020202020202020202020202020203B
:10359000202020202020202020202020202020202B
:1035A000207C7C007C7C203E205661726961626CCC
:1035B000652055534563686F2E2020202020202051
:1035C00020202020202020202020202020202020FB
:1035D00020202020202020202020202020202020EB
:1035E00020202020202020202020202020202020DB
:1035F00020207C7C007C7C203E20476F6F64205024
:10360000696E20436F646520202020202020202028
:1036100020202020202020202020202020202020AA
:10362000202020202020202020202020202020209A
:10363000202020202020202020202020202020208A
:103640002020207C7C007C7C203E204C6F616469C3
:103650006E672053657373696F6E202E2E2E2020A7
:10366000202020202020202020202020202020205A
:10367000202020202020202020202020202020204A
:10368000202020202020202020202020202020203A
:10369000202020207C7C0070616765204465736B6E
:1036A000007C7C203E2050616765204465736B2060
:1036B000202020202020202020202020202020200A
:1036C00020202020202020202020202020202020FA
:1036D00020202020202020202020202020202020EA
:1036E0002020202020202020202020202020207C7E
:1036F0007C007C7C7C7C7C7C7C7C7C7C7C7C7C7C86
:103700007C7C7C7C7C7C7C7C7C7C7C7C7C7C7C7CF9
:103710007C7C7C7C7C7C7C7C7C7C7C7C7C7C7C7CE9
:103720007C7C7C7C7C7C7C7C7C7C7C7C7C7C7C7CD9
:103730007C7C7C7C7C7C7C7C7C7C7C7C7C7C7C7CC9
:103740007C7C007C7C202020202020202020202029
:103750002020202020202020202020202020202069
:103760002020202020202020202020202020202059
:103770002020202020202020202020202020202049
:103780002020202020202020202020202020202039
:10379000207C7C007C7C2020202020205F5F5F5FDD
:1037A0005F202020202020205F5F5F2020205F20DE
:1037B000202020202020202020205F5F5F20205F0D
:1037C0005F202020205F5F202020202020205F5FBE
:1037D0005F5F5F2020205F5F5F5F5F2020202020F1
:1037E00020207C7C007C7C20202020207C20205FEE
:1037F0005F5F7C20202020202F2020207C207C2028
:103800007C2020202020202020202F2020207C20F1
:103810007C207C20207C207C2020202020207C20DC
:10382000205F20207C207C20205F5F5F7C20202088
:103830002020207C7C007C7C20202020207C207C80
:1038400020202020202020202F202F7C207C207C46
:10385000207C20202020202020202F202F7C207C36
:1038600020207C207C7C207C202020202020207C8C
:10387000207C207C207C207C207C5F5F5F202020BF
:10388000202020207C7C007C7C20202020207C208C
:103890007C20205F202020202F202F5F7C207C2078
:1038A0007C207C202020202020202F202F5F7C20A7
:1038B0007C2020207C20207C2020202020202020F4
:1038C0007C207C207C207C207C5F5F5F20207C2013
:1038D00020202020207C7C007C7C20202020207C3C
:1038E000207C5F7C207C20202F205F5F5F20207C5D
:1038F000207C207C5F5F5F2020202F205F5F5F2087
:10390000207C20207C207C7C207C202020202020EB
:10391000207C207C5F7C207C20205F5F5F7C207C83
:103920002020202020207C7C007C7C202020202047
:103930007C5F5F5F5F5F7C202F5F2F2020207C5F9C
:103940007C207C5F5F5F5F5F7C202F5F2F202020CB
:103950007C5F7C207C5F7C20207C5F7C2020202082
:1039600020207C5F5F5F5F5F7C207C5F5F5F5F5FCD
:103970007C2020202020207C7C007C7C202020209B
:103980002020466C617368203A203235332E393559
:1039900032204279746573202D20454550524F4D99
:1039A000203A20342E303030204279746573202D37
:1039B0002052414D203A20382E313932204279743C
:1039C00065732020202020207C7C007C7C2020200F
:1039D00020202020202020202020202047616C61F2
:1039E00078204F5320506F727461626C652045647B
:1039F0006974696F6E202D20416C697820414E4EAC
:103A00004552415544202D20302E30322020202098
:103A10002020202020202020207C7C007C7C203E38
:103A20002053657269616C20496E697469616C69C3
:103A30007A6174696F6E202E2E2E20202020202087
:103A40002020202020202020202020202020202076
:103A50002020202020202020202020202020202066
:103A6000202020202020202020207C7C007C7C2006
:103A70003E20426F6F7475702054686520537973CF
:103A800074656D202E2E2E20202020202020202026
:103A90002020202020202020202020202020202026
:103AA0002020202020202020202020202020202016
:103AB00020202020202020202020207C7C007C7CB6
:103AC000203E2057616974696E6720666F722044DA
:103AD0006973706C6179202E2E2E202020202020EA
:103AE00020202020202020202020202020202020D6
:103AF00020202020202020202020202020202020C6
:103B00002020202020202020202020207C7C00003D
:020000023000CC
:10E000000D9489F10D94B2F10D94B2F10D94B2F129
:10E010000D94B2F10D94B2F10D94B2F10D94B2F1F0
:10E020000D94B2F10D94B2F10D94B2F10D94B2F1E0
:10E030000D94B2F10D94B2F10D94B2F10D94B2F1D0
:10E040000D94B2F10D94B2F10D94B2F10D94B2F1C0
:10E050000D94B2F10D94B2F10D94B2F10D94B2F1B0
:10E060000D94B2F10D94B2F10D94B2F10D94B2F1A0
:10E070000D94B2F10D94B2F10D94B2F10D94B2F190
:10E080000D94B2F10D94B2F10D94B2F10D94B2F180
:10E090000D94B2F10D94B2F10D94B2F10D94B2F170
:10E0A0000D94B2F10D94B2F10D94B2F10D94B2F160
:10E0B0000D94B2F10D94B2F10D94B2F10D94B2F150
:10E0C0000D94B2F10D94B2F10D94B2F10D94B2F140
:10E0D0000D94B2F10D94B2F10D94B2F10D94B2F130
:10E0E0000D94B2F141546D656761323536300041AF
:10E0F000726475696E6F206578706C6F72657220DE
:10E1000073746B3530305632206279204D4C530099
:10E11000426F6F746C6F616465723E004875683F52
:10E1200000436F6D70696C6564206F6E203D200048
:10E130004350552054797065202020203D20005FF9
:10E140005F4156525F415243485F5F3D2000415658
:10E1500052204C696243205665723D20004743437C
:10E160002056657273696F6E203D20004350552024
:10E1700049442020202020203D20004C6F7720663D
:10E18000757365202020203D20004869676820665F
:10E190007573652020203D200045787420667573D6
:10E1A00065202020203D20004C6F636B2066757336
:10E1B000652020203D20004D617220203720323024
:10E1C000313300312E362E3800342E332E350056A2
:10E1D00023202020414444522020206F7020636F70
:10E1E00064652020202020696E73747275637469E1
:10E1F0006F6E2061646472202020496E74657272B3
:10E20000757074006E6F20766563746F7200726A49
:10E210006D702020006A6D70200057686174207056
:10E220006F72743A00506F7274206E6F7420737541
:10E2300070706F72746564004D7573742062652030
:10E2400061206C6574746572002000577269747483
:10E25000696E672045450052656164696E672045B7
:10E26000450045452065727220636E743D00504F35
:10E27000525400303D5A65726F2061646472003FF1
:10E280003D43505520737461747300403D454550C3
:10E29000524F4D207465737400423D426C696E6B41
:10E2A000204C454400453D44756D70204545505215
:10E2B0004F4D00463D44756D7020464C415348001B
:10E2C000483D48656C70004C3D4C69737420492F83
:10E2D0004F20506F72747300513D51756974005234
:10E2E0003D44756D702052414D00563D73686F7707
:10E2F00020696E7465727275707420566563746FF0
:10E30000727300593D506F727420626C696E6B00BD
:10E310002A0011241FBECFEFD1E2DEBFCDBF01E046
:10E320000CBF12E0A0E0B2E0EEE1FDEF03E00BBFB6
:10E3300002C007900D92A030B107D9F712E0A0E01B
:10E34000B2E001C01D92AE30B107E1F70F9460F367
:10E350000D948DFE01E20EBF0FEF0DBF11241FBE05
:10E360000D9460F30D9400F020E030E040ED57E0B4
:10E3700005C0FA013197F1F72F5F3F4F2817390792
:10E38000C0F308959C01260F311DC901A0E0B0E043
:10E390002F5F3F4FABBFFC018791882361F08093D3
:10E3A000C6008091C00086FFFCCF8091C0008064D1
:10E3B0008093C000EACF08958DE08093C6008091DD
:10E3C000C00086FFFCCF8091C00080648093C000B5
:10E3D0008AE08093C6008091C00086FFFCCF8091C8
:10E3E000C00080648093C00008950F94C2F10F9420
:10E3F000DCF10895FC019081992359F09093C600B7
:10E400008091C00086FFFCCF8091C0008064809323
:10E41000C0003196992379F70895282F982F929567
:10E420009F70892F805D8A3308F0895F8093C600D2
:10E430008091C00086FFFCCF8091C00080648093F3
:10E44000C000822F8F70982F905D9A3308F0995FEB
:10E450009093C6008091C00086FFFCCF8091C000E1
:10E4600080648093C00008959C01FB01853691056E
:10E470001CF46330710594F0C90164E670E00F94F8
:10E480002EFE605D7F4F6093C6008091C00086FFC6
:10E49000FCCF8091C00080648093C0002B30310598
:10E4A00014F43297B4F0C90164E670E00F942EFEC4
:10E4B0006AE070E00F942EFE605D7F4F6093C600AF
:10E4C0008091C00086FFFCCF8091C0008064809363
:10E4D000C000C9016AE070E00F942EFEC0968093E0
:10E4E000C6008091C00086FFFCCF8091C000806490
:10E4F0008093C00008951F93182F8EE692EE60E07F
:10E500000F94C2F11093C6008091C00086FFFCCF2B
:10E510008091C00080648093C0000F94DCF11F9153
:10E5200008952F923F924F925F926F927F928F92B7
:10E530009F92AF92BF92CF92DF92EF92FF920F9392
:10E540001F93DF93CF93CDB7DEB762970FB6F894E2
:10E55000DEBF0FBECDBF382E622ECA01DB015C01CB
:10E560006D01772420E2222E2E010894411C511CBB
:10E570008BC081E0A81680E0B80681E0C80680E084
:10E58000D80628F0C601AA27BB270F940DF2BB2797
:10E59000AD2D9C2D8B2D0F940DF28A2D0F940DF225
:10E5A0002092C6008091C00086FFFCCF8091C00001
:10E5B00080648093C0009DE29093C6008091C0006B
:10E5C00086FFFCCF8091C00080648093C0002092C1
:10E5D000C6008091C00086FFFCCF8091C00080649F
:10E5E0008093C00019828601750188249924A1E0D6
:10E5F0003A1651F03A1620F0B2E03B1661F409C029
:10E600000BBFF701779007C0C7010F9477FE782EF4
:10E6100002C0F7017080872D0F940DF22092C60082
:10E620008091C00086FFFCCF8091C0008064809301
:10E63000C000872D8052F401EF70F0708F3520F408
:10E64000E40DF51D708204C0E40DF51D8EE280839B
:10E650000894E11CF11C011D111D0894811C911CE2
:10E6600090E18916910409F0C2CF80E190E0A0E02A
:10E67000B0E0A80EB91ECA1EDB1E198AC2010F9493
:10E68000FAF10F94DCF16A94662009F072CF629679
:10E690000FB6F894DEBF0FBECDBFCF91DF911F91B3
:10E6A0000F91FF90EF90DF90CF90BF90AF909F9031
:10E6B0008F907F906F905F904F903F902F90089534
:10E6C0002F923F924F925F926F927F928F929F9282
:10E6D000AF92BF92CF92DF92EF92FF920F931F9370
:10E6E000DF93CF93CDB7DEB7CD53D1400FB6F894BB
:10E6F000DEBF0FBECDBF01E20EBF0FEF0DBF94B75F
:10E70000F894A89514BE80916000886180936000A1
:10E7100010926000789493FF05C0E0910002F091A0
:10E7200001021995279A2F9A8091C00082608093E8
:10E73000C00080E18093C40088E18093C1000000A4
:10E74000EE24FF24870144E0A42EB12CCC24DD2448
:10E7500024C0C5010197F1F70894E11CF11C011DCB
:10E76000111D21E2E2162EE4F20620E0020720E06D
:10E77000120718F031E0C32ED12CC801B70127ECE5
:10E780003BE140E050E00F9441FE611571058105C9
:10E79000910519F485B1805885B98091C00087FD35
:10E7A00003C0C114D104A9F2A6014F5F5F4FC25E3E
:10E7B000DE4F59834883CE51D140C25EDE4F8881FF
:10E7C0009981CE51D140019711F00D9410FEC05D9A
:10E7D000DE4F19821882C053D14060E0C15DDE4F28
:10E7E0001882CF52D14088249924C35DDE4F19820C
:10E7F0001882CD52D140C05EDE4F188219821A8233
:10E800001B82C052D140CE5CDE4F188219821A8220
:10E810001B82C253D140EE24FF2487010BBFF701B6
:10E8200007911691C45CDE4F19830883CC53D14005
:10E830000D940BFEC25EDE4F28813981CE51D1404E
:10E840002130310509F52091C600C25EDE4F1982E4
:10E850001882CE51D14022C02F5F3F4F4F4F5F4FA4
:10E86000213082E138078AE7480780E0580780F0C6
:10E87000C45CDE4FE881F981CC53D140EF5FFF4F9C
:10E8800019F0EE27FF27099420E030E040E050E047
:10E890008091C00087FFE0CF2091C600C35DDE4FAE
:10E8A00048815981CD52D1404F5F5F4FC35DDE4FEC
:10E8B00059834883CD52D140213209F063C64A3092
:10E8C000510508F05FC60894811C911C53E0851621
:10E8D000910409F059C600E010E018C081E280936D
:10E8E000C6008091C00086FFFCCF8091C00080648C
:10E8F0008093C0002F5F3F4F2931310579F70F9486
:10E90000DCF10F5F1F4F0530110519F020E030E0FA
:10E91000E5CF10920A0210920B0210920C02109294
:10E920000D02109206021092070210920802109235
:10E930000902109202021092030210920402109235
:10E9400005028FEE90EE60E00F94F5F180E191EE1C
:10E9500060E00F94C2F18091C00087FFFCCF9091DE
:10E96000C600903608F09F759032B8F09093C600BC
:10E970008091C00086FFFCCF8091C00080648093AE
:10E98000C000A0E2A093C6008091C00086FFFCCF2B
:10E990008091C00080648093C000983409F4D7C18E
:10E9A0009934B8F4923409F459C1933458F490333B
:10E9B00019F1903308F4E3C59F33A1F1903409F0C5
:10E9C000DEC5BDC0953409F470C1963409F0D7C5D1
:10E9D00098C1923509F42BC2933538F49C3409F46C
:10E9E000F5C1913509F0CBC518C2963509F445C279
:10E9F000993509F0C4C567C483E792EE62E00F94CD
:10EA0000F5F110920602109207021092080210927D
:10EA1000090210920A0210920B0210920C0210923C
:10EA20000D0213C18FE792EE62E00F94F5F18FEEC5
:10EA300090EE60E00F94F5F181E291EE60E00F94CA
:10EA4000C2F187EB91EE60E00F94F5F180E391EE77
:10EA500060E00F94C2F184EE90EE60E00F94F5F167
:10EA60008FE391EE60E00F94C2F186E090E061E008
:10EA700070E00F9434F20F94DCF18DE591EE60E0DC
:10EA80000F94C2F189EC91EE60E00F94F5F18EE401
:10EA900091EE60E00F94C2F183EC91EE60E00F9490
:10EAA000F5F18CE691EE60E00F94C2F18EE10F94E7
:10EAB0000DF288E90F940DF281E00F940DF20F949E
:10EAC000DCF18BE791EE60E00F94C2F119E0E0E039
:10EAD000F0E010935700E4918E2F0F940DF20F94F5
:10EAE000DCF18AE891EE60E00F94C2F1E3E0F0E03F
:10EAF00010935700E4918E2F0F940DF20F94DCF1D8
:10EB000089E991EE60E00F94C2F1E2E0F0E0109349
:10EB10005700E4918E2F0F940DF20F94DCF188EAE8
:10EB200091EE60E00F94C2F1E1E0F0E01093570045
:10EB30001491812F0F940DF20F94DCF107CF8BE825
:10EB400092EE62E00F94F5F18BE492EE60E00F94A8
:10EB5000F5F10F94DCF100E010E019C0C8016F2D51
:10EB60000F947FFEFF2031F489E492EE60E00F9471
:10EB7000C2F10BC0F092C6008091C00086FFFCCFAE
:10EB80008091C00080648093C0000F5F1F4FC80158
:10EB900081519F41A0E0B0E0ABBFFC01F790BAE229
:10EBA000FB1621F0E2E000301E07C1F60F94DCF105
:10EBB0000F94DCF187E592EE60E00F94F5F10F948D
:10EBC000DCF1CC24DD2400E010E01EC0C8010F946D
:10EBD00077FEF82E882331F489E492EE60E00F94FA
:10EBE000C2F10BC08093C6008091C00086FFFCCFAD
:10EBF0008091C00080648093C000FE1419F00894D6
:10EC0000C11CD11C0F5F1F4FC80181519F41A0E063
:10EC1000B0E0ABBFFC01E790FAE2EF1621F022E092
:10EC20000030120799F60F94DCF10F94DCF182E6C4
:10EC300092EE60E00F94C2F1C60161E070E00F94C3
:10EC400034F20F94DCF10F94DCF110920202109276
:10EC50000302109204021092050278CE89E992EE26
:10EC600062E00F94F5F1279A2F9A16C02F9880E052
:10EC700090E0E0EDF7E03197F1F7019684369105E9
:10EC8000C1F72F9A80E090E0E0EDF7E03197F1F7DF
:10EC9000019684369105C1F78091C00087FFE6CFC9
:10ECA0008091C00087FFFCCF64C485EA92EE62E0E9
:10ECB0000F94F5F140910202509103026091040219
:10ECC0007091050281E020E10F9491F2809102029F
:10ECD00090910302A0910402B091050280509F4FD1
:10ECE000AF4FBF4F8093020290930302A0930402A0
:10ECF000B093050280509041A040B04008F426CE69
:10ED0000A4CF83EB92EE62E00F94F5F140910602FE
:10ED100050910702609108027091090280E020E1A1
:10ED20000F9491F28091060290910702A09108023F
:10ED3000B091090280509F4FAF4FBF4F80930602A2
:10ED400090930702A0930802B0930902FFCD80ECD4
:10ED500092EE62E00F94F5F183E792EE60E00F949B
:10ED6000F5F18FE792EE60E00F94F5F18BE892EE0B
:10ED700060E00F94F5F189E992EE60E00F94F5F10F
:10ED800085EA92EE60E00F94F5F183EB92EE60E09D
:10ED90000F94F5F180EC92EE60E00F94F5F187ECC2
:10EDA00092EE60E00F94F5F188ED92EE60E00F9442
:10EDB000F5F18FED92EE60E00F94F5F18AEE92EEB0
:10EDC00060E00F94F5F183E093EEBDCD87EC92EE19
:10EDD00062E00F94F5F181E40F947BF282E40F94EA
:10EDE0007BF283E40F947BF284E40F947BF285E45E
:10EDF0000F947BF286E40F947BF287E40F947BF20E
:10EE000088E40F947BF28AE40F947BF28BE40F94F6
:10EE10007BF28CE40F947BF299CD88ED92EE62E068
:10EE20000F94F5F1772473948824992409C48FED05
:10EE300092EE62E00F94F5F140910A0250910B02BC
:10EE400060910C0270910D0282E020E10F9491F22A
:10EE500080910A0290910B02A0910C02B0910D02D8
:10EE600080509F4FAF4FBF4F80930A0290930B0289
:10EE7000A0930C02B0930D0269CD8AEE92EE62E08F
:10EE80000F94F5F184EE90EE60E00F94F5F18FECC5
:10EE900091EE60E00F94F5F1662477244301CC5D98
:10EEA000DE4F19821882C452D140D401C301B695F5
:10EEB000A79597958795CA5DDE4F88839983AA8326
:10EEC000BB83C652D140CC5DDE4FA881B981C4520C
:10EED000D1401196CC5DDE4FB983A883C452D14096
:10EEE000CD0162E070E00F9434F2B0E2B093C6005E
:10EEF0008091C00086FFFCCF8091C0008064809329
:10EF0000C000EDE2E093C6008091C00086FFFCCF18
:10EF10008091C00080648093C000F0E2F093C6004E
:10EF20008091C00086FFFCCF8091C00080648093F8
:10EF3000C000CA5DDE4FE880F9800A811B81C6529D
:10EF4000D140BB27A12F902F8F2D0F940DF2CA5DBA
:10EF5000DE4F8881C652D1400F940DF2B0E2FB2EF5
:10EF6000F092C6008091C00086FFFCCF8091C00067
:10EF700080648093C0000DE30093C6008091C000C0
:10EF800086FFFCCF8091C00080648093C00010E2B7
:10EF90001093C6008091C00086FFFCCF8091C00016
:10EFA00080648093C0008BBEF3012791C65DDE4F65
:10EFB0002883CA52D140A22EBB24CC24DD2408943D
:10EFC000611C711C811C911C8BBEF3018791282E42
:10EFD0003324442455240894611C711C811C911C09
:10EFE0008BBEF3013791C55DDE4F3883CB52D140E4
:10EFF0000894611C711C811C911C8BBEF30147910C
:10F00000C45DDE4F4883CC52D140ADEFEA2EAFEF66
:10F01000FA2EAFEF0A2FAFEF1A2F6E0C7F1C801E57
:10F02000911E142D032DF22CEE24EA0CFB1C0C1D5A
:10F030001D1D0F940DF220E22093C6008091C000A8
:10F0400086FFFCCF8091C00080648093C000C65DC5
:10F05000DE4F8881CA52D1400F940DF230E23093D6
:10F06000C6008091C00086FFFCCF8091C000806404
:10F070008093C000C45DDE4F8881CC52D1400F9494
:10F080000DF240E24093C6008091C00086FFFCCFA5
:10F090008091C00080648093C000C55DDE4F888190
:10F0A000CB52D1400F940DF250E25093C6008091A4
:10F0B000C00086FFFCCF8091C00080648093C000B8
:10F0C0008FEFE8168FEFF80680E0080780E018075A
:10F0D00031F484E092EE60E00F94C2F1DFC0D80119
:10F0E000C7018070907CA070B0708050904CA040A0
:10F0F000B040D1F52FEF3FE340E050E0E222F322B1
:10F1000004231523CA5DDE4FA880B980CA80DB8046
:10F11000C652D140AE0CBF1CC01ED11EAA0CBB1CD7
:10F12000CC1CDD1C8EE092EE60E00F94C2F1BB2798
:10F13000A12F902F8F2D0F940DF28E2D0F940DF285
:10F1400030E23093C6008091C00086FFFCCF8091F2
:10F15000C00080648093C0004EE34093C60080915D
:10F16000C00086FFFCCF87C08EE09EEFA0E0B0E03D
:10F17000E822F9220A231B239CE0E91694E9F90608
:10F1800090E0090790E0190709F088C0C45DDE4FE0
:10F19000A881CC52D140EA2EFF2400E010E0102FCD
:10F1A0000F2DFE2CEE24C55DDE4FB881CB52D14031
:10F1B000EB0EF11C011D111DD601C501817090706F
:10F1C000A070B070DC0199278827E80EF91E0A1F8D
:10F1D0001B1F20EF30E040E050E0A222B322C42207
:10F1E000D52241E1AA0CBB1CCC1CDD1C4A95D1F7F1
:10F1F000EA0CFB1C0C1D1D1D81E090E0A0E0B0E0BE
:10F20000282239224A225B2235E1220C331C441C7D
:10F21000551C3A95D1F7E20CF31C041D151D57013E
:10F220006801AA0CBB1CCC1CDD1C85E192EE60E0E1
:10F230000F94C2F1C801AA27BB270F940DF2BB2778
:10F24000A12F902F8F2D0F940DF28E2D0F940DF274
:10F2500090E29093C6008091C00086FFFCCF809121
:10F26000C00080648093C000AEE3A093C60080918C
:10F27000C00086FFFCCF8091C00080648093C000F6
:10F28000C601AA27BB270F940DF2BB27AD2D9C2DDD
:10F290008B2D0F940DF28A2D0F940DF20F94DCF14B
:10F2A000CC5DDE4FE881F981C452D140F99709F471
:10F2B0004DCBF4E0EF2EF12C012D112D6E0C7F1CA7
:10F2C000801E911EF2CD83E093EE62E00F94F5F183
:10F2D0008AE192EE60E00F94C2F18091C00087FF56
:10F2E000FCCF1091C6001F751093C6008091C0001E
:10F2F00086FFFCCF8091C00080648093C0000F9493
:10F30000DCF1812F81548A3108F036C1163409F4BA
:10F3100095C0173490F4133409F44EC0143430F40B
:10F320001134F1F0123409F01DC130C0143409F465
:10F3300059C0153409F016C16BC01A3409F4C4C0A1
:10F340001B3438F4173409F48FC0183409F00AC19B
:10F35000A1C01B3409F4D2C01C3409F003C1E8C0B9
:10F360008FEF81B90DC082B1809582B980E090E0C5
:10F37000E0EDF7E03197F1F70196883C9105C1F790
:10F380008091C00087FFEFCF12B8EFC08FEF84B934
:10F390000DC085B1809585B980E090E0E0EDF7E0A3
:10F3A0003197F1F70196883C9105C1F78091C00033
:10F3B00087FFEFCF15B8D9C08FEF87B90DC088B1DF
:10F3C000809588B980E090E0E0EDF7E03197F1F7C3
:10F3D0000196883C9105C1F78091C00087FFEFCF6F
:10F3E00018B8C3C08FEF8AB90DC08BB180958BB9A7
:10F3F00080E090E0E0EDF7E03197F1F70196883C8E
:10F400009105C1F78091C00087FFEFCF1BB8ADC059
:10F410008FEF8DB90DC08EB180958EB980E090E0F0
:10F42000E0EDF7E03197F1F70196883C9105C1F7DF
:10F430008091C00087FFEFCF1EB897C08FEF80BBD1
:10F440000DC081B3809581BB80E090E0E0EDF7E0F6
:10F450003197F1F70196883C9105C1F78091C00082
:10F4600087FFEFCF11BA81C08FEF83BB0DC084B38C
:10F47000809584BB80E090E0E0EDF7E03197F1F714
:10F480000196883C9105C1F78091C00087FFEFCFBE
:10F4900014BA6BC08FEF809301010FC080910201FD
:10F4A00080958093020180E090E0E0EDF7E03197F5
:10F4B000F1F70196883C9105C1F78091C00087FF64
:10F4C000EDCF1092020151C08FEF809304010FC065
:10F4D0008091050180958093050180E090E0E0ED4A
:10F4E000F7E03197F1F70196883C9105C1F78091DB
:10F4F000C00087FFEDCF1092050137C08FEF8093DA
:10F5000007010FC08091080180958093080180E079
:10F5100090E0E0EDF7E03197F1F70196883C910536
:10F52000C1F78091C00087FFEDCF109208011DC088
:10F530008FEF80930A010FC080910B01809580931B
:10F540000B0180E090E0E0EDF7E03197F1F70196F4
:10F55000883C9105C1F78091C00087FFEDCF1092E4
:10F560000B0103C085E292EEEEC98091C00087FFD7
:10F57000FCCF8091C600EAC988E392EEE4C98CE131
:10F5800091EEE1C988249924933011F1943028F444
:10F59000913089F09230B8F408C0953061F195301F
:10F5A000F0F0963009F048C043C02B3109F042C951
:10F5B00091E06BE13FC96227C15DDE4F2883CF52E6
:10F5C000D14092E037C9B22FA0E0622793E032C960
:10F5D000822F90E0A82BB92B622794E02BC92E3004
:10F5E00009F039C3622795E0C05DDE4F19821882A9
:10F5F000C053D1401FC9E1E0F0E0EC0FFD1FC05D3A
:10F60000DE4F08811981C053D140E00FF11F2083E4
:10F610000F5F1F4FC05DDE4F19830883C053D14079
:10F6200062270A171B0709F005C9D80196E002C92D
:10F63000261709F010C303C0973009F0FBC87724E0
:10F640009981933109F412C19431C8F4963009F4C8
:10F65000D8C0973050F4923009F406C1933009F4C1
:10F660006DC0913009F059C253C0913109F477C08F
:10F67000923108F0BBC0903109F04FC2F5C098310B
:10F6800009F487C0993150F4953109F4EFC09531F0
:10F6900008F4C6C1963109F040C2C2C19A3109F4DA
:10F6A0006CC09A3108F491C09B3109F45BC09D3164
:10F6B00009F033C29D81903359F48F81882311F46E
:10F6C0009EE11CC0813011F091E018C098E916C08D
:10F6D000892F807591F0903539F4E0E0F0E089E011
:10F6E0008093570094910AC0983539F4E3E0F0E034
:10F6F00089E080935700949101C090E01A821B82A8
:10F700008D818C831D829E831F8227E030E009C299
:10F710001A8288E08B8381E48C8386E58D8382E581
:10F720008E8389E48F8383E5888780E589878FE5E9
:10F730008A8782E38B872BE030E0F3C18A818139AD
:10F7400041F0823941F0803911F48FE005C080E04A
:10F7500003C082E001C08AE01A828B8344C0772410
:10F76000739482C08D81882311F48EE12CC0813086
:10F7700011F081E028C088E926C01A82E1E0F0E0BB
:10F7800089E08093570084918B831C8224E030E0D1
:10F79000C8C18B81803589F48C81883039F4E2E0EE
:10F7A000F0E089E08093570084910DC0E0E0F0E044
:10F7B00089E080935700849106C0E3E0F0E089E09F
:10F7C0008093570084911A82DFCF8D81836C99E0FA
:10F7D000E1E0F0E0082E90935700E89507B600FCB2
:10F7E000FDCF1A821B8223E030E09BC180EC8A832C
:10F7F000CE5CDE4F188219821A821B82C253D1401E
:10F800008EC18A8190E0A0E0B0E0582F44273327D2
:10F8100022278B8190E0A0E0B0E0DC0199278827C7
:10F82000282B392B4A2B5B2B8D8190E0A0E0B0E098
:10F83000282B392B4A2B5B2B8C8190E0A0E0B0E089
:10F84000BA2FA92F982F8827282B392B4A2B5B2BCF
:10F85000220F331F441F551FC05EDE4F288339839C
:10F860004A835B83C052D1401A8259C13A81C95C34
:10F87000DE4F3883C753D140CA5CDE4F1882C6536F
:10F88000D1408B81C82EDD24CA5CDE4F488159816E
:10F89000C653D140C42AD52A933109F082C0CE5C28
:10F8A000DE4F88819981AA81BB81C253D1408050AB
:10F8B000904CA340B04030F583E0CE5CDE4FE88052
:10F8C000F9800A811B81C253D140F70100935B008C
:10F8D00080935700E89507B600FCFDCFCE5CDE4F65
:10F8E000088119812A813B81C253D14000501F4FAA
:10F8F0002F4F3F4FCE5CDE4F088319832A833B8313
:10F90000C253D140C05EDE4F488159816A817B81FC
:10F91000C052D140DE011B9631E08C9111962C91A2
:10F9200011971296C75CDE4F2883C953D140C85C3B
:10F93000DE4F1882C853D14090E0C85CDE4FE881AA
:10F94000F981C853D1408E2B9F2B0C01FA01609393
:10F950005B0030935700E89511244E5F5F4F6F4F67
:10F960007F4F0EEFE02E0FEFF02ECE0CDF1CC114F8
:10F97000D10499F685E0C05EDE4F088119812A81A5
:10F980003B81C052D140F80120935B008093570027
:10F99000E89507B600FCFDCF81E180935700E8951C
:10F9A00035C0C05EDE4F88819981AA81BB81C0527B
:10F9B000D140B695A795979587957C018601ABE0D8
:10F9C000AA2EB12CAC0EBD1E0BC0D5016D915D01F0
:10F9D000C7010F947FFE0894E11CF11C01501040F8
:10F9E0000115110591F7A60160E070E0440F551F65
:10F9F000661F771FC05EDE4FE880F9800A811B8199
:10FA0000C052D1404E0D5F1D601F711F1A82C05E33
:10FA1000DE4F488359836A837B83C052D1407FC0C5
:10FA2000FA80C55CDE4FF882CB53D140C65CDE4F16
:10FA30001882CA53D1408B81C82EDD24C65CDE4FAC
:10FA400008811981CA53D140C02AD12A1A828981DA
:10FA5000BE016D5F7F4F843121F59601C05EDE4FA0
:10FA6000E880F9800A811B81C052D1400BBFF701A9
:10FA700087919691DB018C9311969C936E5F7F4FDB
:10FA8000D801C7010296A11DB11DC05EDE4F88835B
:10FA90009983AA83BB83C052D14022503040F1F6F3
:10FAA00036C0C05EDE4F288139814A815B81C052F9
:10FAB000D1400894C108D108760100E010E0089414
:10FAC000C11CD11C0894E11CF11C011D111DE20E8A
:10FAD000F31E041F151F21BDBB27A52F942F832FB5
:10FAE00082BD2F5F3F4F4F4F5F4FF89A80B5DB01CC
:10FAF0008D93BD012E153F054007510761F7C05E8C
:10FB0000DE4F288339834A835B83C052D1409601FC
:10FB10002D5F3F4FFB01108204C080EC8A8322E0FE
:10FB200030E08BE18093C6008091C00086FFFCCF5F
:10FB30008091C00080648093C000C15DDE4FF88179
:10FB4000CF52D140F093C6008091C00086FFFCCF19
:10FB50008091C00080648093C000432F3093C60022
:10FB60008091C00086FFFCCF8091C00080648093AC
:10FB7000C000922F2093C6008091C00086FFFCCF6A
:10FB80008091C00080648093C0008EE08093C600A6
:10FB90008091C00086FFFCCF8091C000806480937C
:10FBA000C00065E1C15DDE4FE880CF52D1406E25D7
:10FBB00069276427FE01319610C090819093C6009A
:10FBC0008091C00086FFFCCF31968091C000806498
:10FBD0008093C0006927215030402115310569F715
:10FBE0006093C6008091C00086FFFCCF8091C0006A
:10FBF00080648093C00085B1805885B9772081F4F6
:10FC0000C15DDE4F0881CF52D1400F5FC15DDE4F35
:10FC10000883CF52D14090E0A0E0B0E00D941AF4F8
:10FC200027982F9880E090E020ED37E0F901319798
:10FC3000F1F7019684369105C9F700008091C00064
:10FC40008D7F8093C00081E180935700E895EE2777
:10FC5000FF270994FFCF90E00D941AF497FB092E2B
:10FC600007260AD077FD04D02ED006D000201AF443
:10FC7000709561957F4F0895F6F7909581959F4F08
:10FC80000895A1E21A2EAA1BBB1BFD010DC0AA1FDD
:10FC9000BB1FEE1FFF1FA217B307E407F50720F0F5
:10FCA000A21BB30BE40BF50B661F771F881F991F70
:10FCB0001A9469F760957095809590959B01AC01B9
:10FCC000BD01CF010895AA1BBB1B51E107C0AA1FAC
:10FCD000BB1FA617B70710F0A61BB70B881F991FED
:10FCE0005A95A9F780959095BC01CD010895F99991
:10FCF000FECF92BD81BDF89A992780B50895262F31
:10FD0000F999FECF1FBA92BD81BD20BD0FB6F89400
:0EFD1000FA9AF99A0FBE01960895F894FFCF63
:040000033000E000E9
:00000001FF
